:100000000C9483020C94A0020C94A0020C94A00205
:100010000C94A0020C94A0020C94A0020C94A002D8
:100020000C94A0020C94A0020C94A0020C94A002C8
:100030000C94A0020C94A0020C941B060C94A00239
:100040000C94A0020C94A0020C94A0020C94A002A8
:100050000C94A00200001100230035004700590055
:100060006A007C008E00A000B100C300D400E6004E
:10007000F700080119012B013C014D015D016E01E2
:100080007F018F01A001B001C001D001E001EF01AB
:10009000FF010E021E022D023C024A0259026702B3
:1000A0007502830291029F02AC02B902C602D3021A
:1000B000DF02EC02F80204030F031B0326033103E3
:1000C0003B0345035003590363036C0375037E032D
:1000D00087038F0397039F03A603AD03B403BB03FA
:1000E000C103C703CC03D203D703DC03E003E4035B
:1000F000E803EC03EF03F203F503F703F903FB0353
:10010000FC03FD03FE03FE03FF03FE03FE03FD03EA
:10011000FC03FB03F903F703F503F203EF03EC031E
:10012000E803E403E003DC03D703D203CC03C703F3
:10013000C103BB03B403AD03A6039F0397038F035F
:1001400087037E0375036C03630359035003450360
:100150003B03310326031B030F030403F802EC02E5
:10016000DF02D302C602B902AC029F0291028302EF
:100170007502670259024A023C022D021E020E025B
:10018000FF01EF01E001D001C001B001A0018F012A
:100190007F016E015D014D013C012B011901080138
:1001A000F700E600D400C300B100A0008E007C0080
:1001B0006A00590047003500230011000000EFFFDE
:1001C000DDFFCBFFB9FFA7FF96FF84FF72FF60FF43
:1001D0004FFF3DFF2CFF1AFF09FFF8FEE7FED5FE9B
:1001E000C4FEB3FEA3FE92FE81FE71FE60FE50FED1
:1001F00040FE30FE20FE11FE01FEF2FDE2FDD3FDC9
:10020000C4FDB6FDA7FD99FD8BFD7DFD6FFD61FD74
:1002100054FD47FD3AFD2DFD21FD14FD08FDFCFCBC
:10022000F1FCE5FCDAFCCFFCC5FCBBFCB0FCA7FC98
:100230009DFC94FC8BFC82FC79FC71FC69FC61FCEC
:100240005AFC53FC4CFC45FC3FFC39FC34FC2EFCB6
:1002500029FC24FC20FC1CFC18FC14FC11FC0EFCEA
:100260000BFC09FC07FC05FC04FC03FC02FC02FC83
:1002700001FC02FC02FC03FC04FC05FC07FC09FC7D
:100280000BFC0EFC11FC14FC18FC1CFC20FC24FCD8
:1002900029FC2EFC34FC39FC3FFC45FC4CFC53FC97
:1002A0005AFC61FC69FC71FC79FC82FC8BFC94FCBF
:1002B0009DFCA7FCB0FCBBFCC5FCCFFCDAFCE5FC5C
:1002C000F1FCFCFC08FD14FD21FD2DFD3AFD47FD70
:1002D00054FD61FD6FFD7DFD8BFD99FDA7FDB6FD14
:1002E000C4FDD3FDE2FDF2FD01FE11FE20FE30FE55
:1002F00040FE50FE60FE71FE81FE92FEA3FEB3FE44
:10030000C4FED5FEE7FEF8FE09FF1AFF2CFF3DFFF5
:100310004FFF60FF72FF84FF96FFA7FFB9FFCBFF7F
:10032000DDFFEFFF000011002300350047005900FA
:100330006A007C008E00A000B100C300D400E6007B
:10034000F700080119012B013C014D015D016E010F
:100350007F018F01A001B001C001D001E001EF01D8
:10036000FF010E021E022D023C024A0259026702E0
:100370007502830291029F02AC02B902C602D30247
:10038000DF02EC02F80204030F031B032603310310
:100390003B0345035003590363036C0375037E035A
:1003A00087038F0397039F03A603AD03B403BB0327
:1003B000C103C703CC03D203D703DC03E003E40388
:1003C000E803EC03EF03F203F503F703F903FB0380
:1003D000FC03FD03FE03FE03FF03FE03FE03FD0318
:1003E000FC03FB03F903F703F503F203EF03EC034C
:1003F000E803E403E003DC03D703D203CC03C70321
:10040000C103BB03B403AD03A6039F0397038F038C
:1004100087037E0375036C0363035903500345038D
:100420003B03310326031B030F030403F802EC0212
:10043000DF02D302C602B902AC029F02910283021C
:100440007502670259024A023C022D021E020E0288
:10045000FF01EF01E001D001C001B001A0018F0157
:100460007F016E015D014D013C012B011901080165
:10047000F700E600D400C300B100A0008E007C00AD
:100480006A00590047003500230011000000EFFF0B
:10049000DDFFCBFFB9FFA7FF96FF84FF72FF60FF70
:1004A0004FFF3DFF2CFF1AFF09FFF8FEE7FED5FEC8
:1004B000C4FEB3FEA3FE92FE81FE71FE60FE50FEFE
:1004C00040FE30FE20FE11FE01FEF2FDE2FDD3FDF6
:1004D000C4FDB6FDA7FD99FD8BFD7DFD6FFD61FDA2
:1004E00054FD47FD3AFD2DFD21FD14FD08FDFCFCEA
:1004F000F1FCE5FCDAFCCFFCC5FCBBFCB0FCA7FCC6
:100500009DFC94FC8BFC11241FBECFE5D4E0DEBF24
:10051000CDBF10E0A0E6B0E0E2E3FEE002C005904F
:100520000D92A037B107D9F710E0A0E7B0E001C005
:100530001D92A339B107E1F70E943E030C941707FF
:100540000C940000AF92BF92CF92DF92EF92FF9295
:100550000F931F93C09887EE8FB9779BFECF8FB113
:100560001FB8779BFECF8FB1809384001FB8779B15
:10057000FECF8FB1809383001FB8779BFECF8FB1E2
:10058000809382001FB8779BFECF8FB1809381004C
:10059000C09A2091840080918300A0908200E09016
:1005A000810030E040E050E0522F442733272227DB
:1005B00090E0A0E0B0E0DC0199278827282B392BB8
:1005C0004A2B5B2BFF2400E010E02E293F29402B13
:1005D000512BBB24CC24DD24DC2CCB2CBA2CAA241C
:1005E0002A293B294C295D2980918400882324F401
:1005F0002F5F3F4F4F4F5F4FB901CA011F910F91BE
:10060000FF90EF90DF90CF90BF90AF900895B89A91
:10061000C09A80EA9FE00197F1F7C09808959C0185
:10062000C09883ED8FB9779BFECF8FB12FB9779BA1
:10063000FECF8FB1832F992787FD9A958FB9779B2E
:10064000FECF8FB16FB9779BFECF8FB1872F9927E0
:1006500087FD9A958FB9779BFECF8FB14FB9779B66
:10066000FECF8FB1852F992787FD9A958FB9779BFC
:10067000FECF8FB1C19AC198C09A08952F923F9230
:100680004F925F926F927F928F929F92AF92BF92A2
:10069000CF92DF92EF92FF920F931F93DF93CF934E
:1006A000CDB7DEB7AF970FB6F894DEBF0FBECDBFA4
:1006B0001D821C821B8A1A8A81EB87BBC09A80E547
:1006C0008DB90E9407038AB38C6F8ABB87B386609B
:1006D00087BB81B3806681BB8FEC86B982E88FBD12
:1006E00081E18EBD84EF91E097BD86BD8FEE91E0F4
:1006F0009BBD8ABD84B38F7384BB1B821A82C29A4E
:100700001CA21DA21EA21FA21982C29878947FEF7C
:10071000A72E73E0B72EC12CD12C61E0662E6CEFB2
:10072000762E6FEF862E6FEF962E50EF452E512CC2
:100730004CE3242E312C1CA61DA61EA61FA60E942B
:10074000A2026C8B7D8B8E8B9F8B80917100909120
:100750007200A0917300B09174000196A11DB11DAB
:100760008093710090937200A0937300B093740013
:100770008091710090917200A0917300B09174000B
:100780004597A105B105A4F08CA19DA1AEA1BFA183
:100790008C599F4FAF4FBF4F8CA39DA3AEA3BFA358
:1007A00010927100109272001092730010927400F7
:1007B0008CA19DA1AEA1BFA12C893D894E895F89E5
:1007C000821B930BA40BB50B88A799A7AAA7BBA75D
:1007D0002CA53DA54EA55FA588A599A5AAA5BBA555
:1007E000820F931FA41FB51F8CA79DA7AEA7BFA7FD
:1007F0008CA59DA5AEA5BFA580509440A040B0405B
:1008000024F0ACA6BDA6CEA6DFA68CA59DA5AEA560
:10081000BFA581509C4FAF4FBF4F24F46CA67DA65F
:100820008EA69FA6F894789488A599A5AAA5BBA59D
:100830002CA53DA54EA55FA5280F391F4A1F5B1F9C
:10084000288F398F4A8F5B8F81E08983888D998DBE
:10085000AA8DBB8DB7FF10C0888D998DAA8DBB8DD9
:10086000B095A095909581959F4FAF4FBF4F888FC2
:10087000998FAA8FBB8F1982888D998DAA8DBB8D78
:1008800080509440A040B04024F0A88EB98ECA8E0B
:10089000DB8E80B38695869590E09D838C838C81DA
:1008A0009D81877090709D838C838C819D81833026
:1008B0009105D1F0843091053CF48130910589F0A7
:1008C000029709F038CF13C08530910539F0853093
:1008D0009105ACF0069709F02ECF0EC01D821C8248
:1008E00012C03D822C820FC088E790E00AC024EB42
:1008F00030E03D832C8307C05D824C8204C08CE2D3
:1009000091E09D838C832A813B818C819D81281776
:10091000390781F08C819D819B838A838C899D8995
:10092000AE89BF898093750090937600A09377007D
:10093000B093780060917500709176008091770097
:1009400090917800EC88FD880E891F892BE030E0BB
:1009500040E050E00E94DA062E193F093B8B2A8BBB
:100960008A899B89CC9724F02BE330E03B8B2A8B40
:100970008A899B89855C9F4F24F485EC9FEF9B8B34
:100980008A8B8C819D814E969D838C838C819D81E9
:100990008C819D818C819D81CD9714F421E01DC0B7
:1009A0008C819D818937910514F422E016C08C81D9
:1009B0009D81853B910514F423E00FC08C819D81BE
:1009C000813F910514F424E008C08C819D818D52F3
:1009D000914014F026E001C025E09E9B06C0969A47
:1009E00080E991E09BBD8ABD04C096981BBC1ABCEF
:1009F00020E08C819D8197FF02C01D821C828C812A
:100A00009D818956914024F088E691E09D838C83F6
:100A1000E981F0E033E0EE0FFF1F3A95E1F7E20FD6
:100A2000F11DE05AFF4F80818BBBEC81FD81EE0F01
:100A3000FF1FEC5AFF4F85919491AA2797FDA0952F
:100A4000BA2F8C8F9D8FAE8FBF8F688D798D8A8DD9
:100A50009B8D2C8D3D8D4E8D5F8D0E94BB0621EDB3
:100A600033E040E050E00E94BB0668A379A38AA36C
:100A70009BA368A179A18AA19BA120E432E44FE065
:100A800050E00E94DA06C901DA018C8F9D8FAE8F8B
:100A9000BF8F8C8D9D8DAE8DBF8D9F838E83EC819E
:100AA000FD81EE0FFF1FEC5BFE4F85919491AA270D
:100AB00097FDA095BA2F8C8F9D8FAE8FBF8F688DBD
:100AC000798D8A8D9B8D2C8D3D8D4E8D5F8D0E94F5
:100AD000BB0621ED33E040E050E00E94BB0668A376
:100AE00079A38AA39BA368A179A18AA19BA120E4F1
:100AF00032E44FE050E00E94DA06C901DA018C8F3F
:100B00009D8FAE8FBF8F8C8D9D8DAE8DBF8D998744
:100B10008887EC81FD81EE0FFF1FEC5CFD4F859116
:100B20009491AA2797FDA095BA2F8C8F9D8FAE8F99
:100B3000BF8F688D798D8A8D9B8D2C8D3D8D4E8DCF
:100B40005F8D0E94BB0621ED33E040E050E00E9443
:100B5000BB0668A379A38AA39BA368A179A18AA1F4
:100B60009BA120E432E44FE050E00E94DA06C90184
:100B7000DA018C8F9D8FAE8FBF8F8C8D9D8DAE8D4A
:100B8000BF8D9B878A878E819F8197FF07C08E814B
:100B90009F81909581959F4F9F838E8388859985AE
:100BA00097FF07C088859985909581959F4F998774
:100BB00088878A859B8597FF07C08A859B85909546
:100BC00081959F4F9B878A878E819F819595879579
:100BD0009F838E8388859985959587959987888742
:100BE0008A859B85959587959B878A878E819F812E
:100BF0009D878C87888599859F878E878A859B8529
:100C0000998B888B8C859D856E857F8548895989D0
:100C10000E940F0390CD8FB9779BFECF8FB10895BF
:100C20008FB9779BFECF8FB1089581EB87BBC09AB8
:100C300080E58DB908951F920F920FB60F9211247F
:100C40002F933F934F938F939F93EF93FF93E09155
:100C50007000F0E024B145B1942F80E030E0822BA9
:100C6000932BEE0FFF1FEB57FF4F918380838091F3
:100C700070008F5F8093700080917000823010F060
:100C8000109270008091700087B9369AFF91EF91B1
:100C90009F918F914F913F912F910F900FBE0F9089
:100CA0001F901895DF93CF93CDB7DEB7A8970FB6F7
:100CB000F894DEBF0FBECDBFDE01119688E2FD01C4
:100CC00011928A95E9F781E089838A838B831C825C
:100CD0001D828E838F838887C098FD0141E09AE151
:100CE0009E01275D3F4F8E2F8A1B883038F480810C
:100CF000882311F0C59A07C0C59805C0B69B02C0ED
:100D0000408301C01082892F8A95F1F7C79A892FF5
:100D10008A95F1F7C7983196E217F30721F78AE130
:100D20008A95F1F7C09AFE01399620E030E040E064
:100D300050E060E070E0819190E0A0E0B0E0062E2D
:100D400004C0880F991FAA1FBB1F0A94D2F7282B33
:100D5000392B4A2B5B2B6F5F7F4F6032710559F740
:100D6000B901CA01A8960FB6F894DEBF0FBECDBF79
:100D7000CF91DF910895629FD001739FF001829F10
:100D8000E00DF11D649FE00DF11D929FF00D839F1A
:100D9000F00D749FF00D659FF00D9927729FB00DB7
:100DA000E11DF91F639FB00DE11DF91FBD01CF01CA
:100DB0001124089597FB092E05260ED057FD04D067
:100DC00014D00AD0001C38F45095409530952195E8
:100DD0003F4F4F4F5F4F0895F6F790958095709570
:100DE00061957F4F8F4F9F4F0895A1E21A2EAA1B46
:100DF000BB1BFD010DC0AA1FBB1FEE1FFF1FA217CB
:100E0000B307E407F50720F0A21BB30BE40BF50BC7
:100E1000661F771F881F991F1A9469F76095709550
:100E2000809590959B01AC01BD01CF010895F89488
:020E3000FFCFF2
:100E320000F8E8ECACBCB80000ACBCB8F8E8EC00D8
:00000001FF
